{
  "_format": "hh-sol-artifact-1",
  "contractName": "ZombieAttack",
  "sourceName": "contracts/zombieattack.sol",
  "abi": [
    {
      "anonymous": false,
      "inputs": [
        {
          "indexed": false,
          "internalType": "uint256",
          "name": "zombieId",
          "type": "uint256"
        },
        {
          "indexed": false,
          "internalType": "string",
          "name": "name",
          "type": "string"
        },
        {
          "indexed": false,
          "internalType": "uint256",
          "name": "dna",
          "type": "uint256"
        }
      ],
      "name": "NewZombie",
      "type": "event"
    },
    {
      "anonymous": false,
      "inputs": [
        {
          "indexed": true,
          "internalType": "address",
          "name": "previousOwner",
          "type": "address"
        },
        {
          "indexed": true,
          "internalType": "address",
          "name": "newOwner",
          "type": "address"
        }
      ],
      "name": "OwnershipTransferred",
      "type": "event"
    },
    {
      "inputs": [
        {
          "internalType": "uint256",
          "name": "_zombieId",
          "type": "uint256"
        },
        {
          "internalType": "uint256",
          "name": "_targetId",
          "type": "uint256"
        }
      ],
      "name": "attack",
      "outputs": [],
      "stateMutability": "nonpayable",
      "type": "function"
    },
    {
      "inputs": [
        {
          "internalType": "uint256",
          "name": "_zombieId",
          "type": "uint256"
        },
        {
          "internalType": "uint256",
          "name": "_newDna",
          "type": "uint256"
        }
      ],
      "name": "changeDna",
      "outputs": [],
      "stateMutability": "nonpayable",
      "type": "function"
    },
    {
      "inputs": [
        {
          "internalType": "uint256",
          "name": "_zombieId",
          "type": "uint256"
        },
        {
          "internalType": "string",
          "name": "_newName",
          "type": "string"
        }
      ],
      "name": "changeName",
      "outputs": [],
      "stateMutability": "nonpayable",
      "type": "function"
    },
    {
      "inputs": [
        {
          "internalType": "string",
          "name": "_name",
          "type": "string"
        }
      ],
      "name": "createRandomZombie",
      "outputs": [],
      "stateMutability": "nonpayable",
      "type": "function"
    },
    {
      "inputs": [
        {
          "internalType": "uint256",
          "name": "_zombieId",
          "type": "uint256"
        },
        {
          "internalType": "uint256",
          "name": "_kittyId",
          "type": "uint256"
        }
      ],
      "name": "feedOnKitty",
      "outputs": [],
      "stateMutability": "nonpayable",
      "type": "function"
    },
    {
      "inputs": [
        {
          "internalType": "address",
          "name": "_owner",
          "type": "address"
        }
      ],
      "name": "getZombiesByOwner",
      "outputs": [
        {
          "internalType": "uint256[]",
          "name": "",
          "type": "uint256[]"
        }
      ],
      "stateMutability": "view",
      "type": "function"
    },
    {
      "inputs": [],
      "name": "isOwner",
      "outputs": [
        {
          "internalType": "bool",
          "name": "",
          "type": "bool"
        }
      ],
      "stateMutability": "view",
      "type": "function"
    },
    {
      "inputs": [
        {
          "internalType": "uint256",
          "name": "_zombieId",
          "type": "uint256"
        }
      ],
      "name": "levelUp",
      "outputs": [],
      "stateMutability": "payable",
      "type": "function"
    },
    {
      "inputs": [],
      "name": "owner",
      "outputs": [
        {
          "internalType": "address",
          "name": "",
          "type": "address"
        }
      ],
      "stateMutability": "view",
      "type": "function"
    },
    {
      "inputs": [],
      "name": "renounceOwnership",
      "outputs": [],
      "stateMutability": "nonpayable",
      "type": "function"
    },
    {
      "inputs": [
        {
          "internalType": "address",
          "name": "_address",
          "type": "address"
        }
      ],
      "name": "setKittyContractAddress",
      "outputs": [],
      "stateMutability": "nonpayable",
      "type": "function"
    },
    {
      "inputs": [
        {
          "internalType": "uint256",
          "name": "_fee",
          "type": "uint256"
        }
      ],
      "name": "setLevelUpFee",
      "outputs": [],
      "stateMutability": "nonpayable",
      "type": "function"
    },
    {
      "inputs": [
        {
          "internalType": "address",
          "name": "newOwner",
          "type": "address"
        }
      ],
      "name": "transferOwnership",
      "outputs": [],
      "stateMutability": "nonpayable",
      "type": "function"
    },
    {
      "inputs": [],
      "name": "withdraw",
      "outputs": [],
      "stateMutability": "nonpayable",
      "type": "function"
    },
    {
      "inputs": [
        {
          "internalType": "uint256",
          "name": "",
          "type": "uint256"
        }
      ],
      "name": "zombieToOwner",
      "outputs": [
        {
          "internalType": "address",
          "name": "",
          "type": "address"
        }
      ],
      "stateMutability": "view",
      "type": "function"
    },
    {
      "inputs": [
        {
          "internalType": "uint256",
          "name": "",
          "type": "uint256"
        }
      ],
      "name": "zombies",
      "outputs": [
        {
          "internalType": "string",
          "name": "name",
          "type": "string"
        },
        {
          "internalType": "uint256",
          "name": "dna",
          "type": "uint256"
        },
        {
          "internalType": "uint32",
          "name": "level",
          "type": "uint32"
        },
        {
          "internalType": "uint32",
          "name": "readyTime",
          "type": "uint32"
        },
        {
          "internalType": "uint16",
          "name": "winCount",
          "type": "uint16"
        },
        {
          "internalType": "uint16",
          "name": "lossCount",
          "type": "uint16"
        }
      ],
      "stateMutability": "view",
      "type": "function"
    }
  ],
  "bytecode": "0x60806040526010600155600154600a6200001a919062000163565b6002556201518060035566038d7ea4c6800060085560006009556046600a553480156200004657600080fd5b50336000806101000a81548173ffffffffffffffffffffffffffffffffffffffff021916908373ffffffffffffffffffffffffffffffffffffffff16021790555060008054906101000a900473ffffffffffffffffffffffffffffffffffffffff1673ffffffffffffffffffffffffffffffffffffffff16600073ffffffffffffffffffffffffffffffffffffffff167f8be0079c531659141344cd1fd0a4f28419497f9722a3daafe3b4186f6b6457e060405160405180910390a3620002e6565b6000808291508390505b60018511156200015a57808604811115620001325762000131620002aa565b5b6001851615620001425780820291505b80810290506200015285620002d9565b945062000112565b94509492505050565b60006200017082620002a0565b91506200017d83620002a0565b9250620001ac7fffffffffffffffffffffffffffffffffffffffffffffffffffffffffffffffff8484620001b4565b905092915050565b600082620001c6576001905062000299565b81620001d6576000905062000299565b8160018114620001ef5760028114620001fa5762000230565b600191505062000299565b60ff8411156200020f576200020e620002aa565b5b8360020a915084821115620002295762000228620002aa565b5b5062000299565b5060208310610133831016604e8410600b84101617156200026a5782820a905083811115620002645762000263620002aa565b5b62000299565b62000279848484600162000108565b92509050818404811115620002935762000292620002aa565b5b81810290505b9392505050565b6000819050919050565b7f4e487b7100000000000000000000000000000000000000000000000000000000600052601160045260246000fd5b60008160011c9050919050565b61251a80620002f66000396000f3fe6080604052600436106100f35760003560e01c8063715018a61161008a578063c39cbef111610059578063c39cbef1146102f8578063ccf670f814610321578063e1fa76381461034a578063f2fde38b14610373576100f3565b8063715018a6146102625780637bff0a01146102795780638da5cb5b146102a25780638f32d59b146102cd576100f3565b80634412e104116100c65780634412e10414610196578063528b7b8f146101d35780635f4623f1146102105780635faf288014610239576100f3565b80630ce90ec2146100f857806317a7f4cc146101145780632052465e1461013d5780633ccfd60b1461017f575b600080fd5b610112600480360381019061010d9190611c0a565b61039c565b005b34801561012057600080fd5b5061013b60048036038101906101369190611c8b565b61049f565b005b34801561014957600080fd5b50610164600480360381019061015f9190611c0a565b6105cc565b60405161017696959493929190611f75565b60405180910390f35b34801561018b57600080fd5b506101946106dc565b005b3480156101a257600080fd5b506101bd60048036038101906101b89190611ac5565b610743565b6040516101ca9190611ef3565b60405180910390f35b3480156101df57600080fd5b506101fa60048036038101906101f59190611c0a565b6108e2565b6040516102079190611ed8565b60405180910390f35b34801561021c57600080fd5b5061023760048036038101906102329190611ac5565b610915565b005b34801561024557600080fd5b50610260600480360381019061025b9190611c8b565b61096a565b005b34801561026e57600080fd5b50610277610a9e565b005b34801561028557600080fd5b506102a0600480360381019061029b9190611bc9565b610b6d565b005b3480156102ae57600080fd5b506102b7610c11565b6040516102c49190611ed8565b60405180910390f35b3480156102d957600080fd5b506102e2610c3a565b6040516102ef9190611f15565b60405180910390f35b34801561030457600080fd5b5061031f600480360381019061031a9190611c33565b610c91565b005b34801561032d57600080fd5b5061034860048036038101906103439190611c0a565b610dd1565b005b34801561035657600080fd5b50610371600480360381019061036c9190611c8b565b610dec565b005b34801561037f57600080fd5b5061039a60048036038101906103959190611ac5565b61112e565b005b60085434146103aa57600080fd5b600481815481106103e4577f4e487b7100000000000000000000000000000000000000000000000000000000600052603260045260246000fd5b9060005260206000209060030201600201600081819054906101000a900463ffffffff168092919061041590612300565b91906101000a81548163ffffffff021916908363ffffffff1602179055506004828154811061046d577f4e487b7100000000000000000000000000000000000000000000000000000000600052603260045260246000fd5b906000526020600020906003020160020160006101000a81548163ffffffff021916908363ffffffff16021790555050565b6000600760009054906101000a900473ffffffffffffffffffffffffffffffffffffffff1673ffffffffffffffffffffffffffffffffffffffff1663e98b7f4d836040518263ffffffff1660e01b81526004016104fc9190611fdd565b6101406040518083038186803b15801561051557600080fd5b505afa158015610529573d6000803e3d6000fd5b505050506040513d601f19601f8201168201806040525081019061054d9190611aee565b909192939495969798509091929394959697509091929394959650909192939495509091929394509091929350909192509091509050809150506105c783826040518060400160405280600581526020017f6b6974747900000000000000000000000000000000000000000000000000000081525061114b565b505050565b600481815481106105dc57600080fd5b90600052602060002090600302016000915090508060000180546105ff9061225a565b80601f016020809104026020016040519081016040528092919081815260200182805461062b9061225a565b80156106785780601f1061064d57610100808354040283529160200191610678565b820191906000526020600020905b81548152906001019060200180831161065b57829003601f168201915b5050505050908060010154908060020160009054906101000a900463ffffffff16908060020160049054906101000a900463ffffffff16908060020160089054906101000a900461ffff169080600201600a9054906101000a900461ffff16905086565b6106e4610c3a565b6106ed57600080fd5b60006106f7610c11565b90508073ffffffffffffffffffffffffffffffffffffffff166108fc479081150290604051600060405180830381858888f1935050505015801561073f573d6000803e3d6000fd5b5050565b60606000600660008473ffffffffffffffffffffffffffffffffffffffff1673ffffffffffffffffffffffffffffffffffffffff1681526020019081526020016000205467ffffffffffffffff8111156107c6577f4e487b7100000000000000000000000000000000000000000000000000000000600052604160045260246000fd5b6040519080825280602002602001820160405280156107f45781602001602082028036833780820191505090505b5090506000805b6004805490508110156108d7578473ffffffffffffffffffffffffffffffffffffffff166005600083815260200190815260200160002060009054906101000a900473ffffffffffffffffffffffffffffffffffffffff1673ffffffffffffffffffffffffffffffffffffffff1614156108c457808383815181106108a9577f4e487b7100000000000000000000000000000000000000000000000000000000600052603260045260246000fd5b60200260200101818152505081806108c0906122b7565b9250505b80806108cf906122b7565b9150506107fb565b508192505050919050565b60056020528060005260406000206000915054906101000a900473ffffffffffffffffffffffffffffffffffffffff1681565b61091d610c3a565b61092657600080fd5b80600760006101000a81548173ffffffffffffffffffffffffffffffffffffffff021916908373ffffffffffffffffffffffffffffffffffffffff16021790555050565b60148281600482815481106109a8577f4e487b7100000000000000000000000000000000000000000000000000000000600052603260045260246000fd5b906000526020600020906003020160020160009054906101000a900463ffffffff1663ffffffff1610156109db57600080fd5b836005600082815260200190815260200160002060009054906101000a900473ffffffffffffffffffffffffffffffffffffffff1673ffffffffffffffffffffffffffffffffffffffff163373ffffffffffffffffffffffffffffffffffffffff1614610a4757600080fd5b8360048681548110610a82577f4e487b7100000000000000000000000000000000000000000000000000000000600052603260045260246000fd5b9060005260206000209060030201600101819055505050505050565b610aa6610c3a565b610aaf57600080fd5b600073ffffffffffffffffffffffffffffffffffffffff1660008054906101000a900473ffffffffffffffffffffffffffffffffffffffff1673ffffffffffffffffffffffffffffffffffffffff167f8be0079c531659141344cd1fd0a4f28419497f9722a3daafe3b4186f6b6457e060405160405180910390a360008060006101000a81548173ffffffffffffffffffffffffffffffffffffffff021916908373ffffffffffffffffffffffffffffffffffffffff160217905550565b6000600660003373ffffffffffffffffffffffffffffffffffffffff1673ffffffffffffffffffffffffffffffffffffffff1681526020019081526020016000205414610bb957600080fd5b6000610bc48261130e565b9050606481610bd3919061235b565b81610bde919061217e565b9050610bea8282611353565b610c0d6040518060600160405280603981526020016124ac6039913983836115ca565b5050565b60008060009054906101000a900473ffffffffffffffffffffffffffffffffffffffff16905090565b60008060009054906101000a900473ffffffffffffffffffffffffffffffffffffffff1673ffffffffffffffffffffffffffffffffffffffff163373ffffffffffffffffffffffffffffffffffffffff1614905090565b6002838160048281548110610ccf577f4e487b7100000000000000000000000000000000000000000000000000000000600052603260045260246000fd5b906000526020600020906003020160020160009054906101000a900463ffffffff1663ffffffff161015610d0257600080fd5b846005600082815260200190815260200160002060009054906101000a900473ffffffffffffffffffffffffffffffffffffffff1673ffffffffffffffffffffffffffffffffffffffff163373ffffffffffffffffffffffffffffffffffffffff1614610d6e57600080fd5b848460048881548110610daa577f4e487b7100000000000000000000000000000000000000000000000000000000600052603260045260246000fd5b90600052602060002090600302016000019190610dc8929190611896565b50505050505050565b610dd9610c3a565b610de257600080fd5b8060088190555050565b816005600082815260200190815260200160002060009054906101000a900473ffffffffffffffffffffffffffffffffffffffff1673ffffffffffffffffffffffffffffffffffffffff163373ffffffffffffffffffffffffffffffffffffffff1614610e5857600080fd5b600060048481548110610e94577f4e487b7100000000000000000000000000000000000000000000000000000000600052603260045260246000fd5b90600052602060002090600302019050600060048481548110610ee0577f4e487b7100000000000000000000000000000000000000000000000000000000600052603260045260246000fd5b906000526020600020906003020190506000610efc6064611669565b9050600a5481116110685782600201600881819054906101000a900461ffff1680929190610f299061228c565b91906101000a81548161ffff021916908361ffff1602179055508360020160086101000a81548161ffff021916908361ffff16021790555082600201600081819054906101000a900463ffffffff1680929190610f8590612300565b91906101000a81548163ffffffff021916908363ffffffff1602179055508360020160006101000a81548163ffffffff021916908363ffffffff16021790555081600201600a81819054906101000a900461ffff1680929190610fe79061228c565b91906101000a81548161ffff021916908361ffff16021790555082600201600a6101000a81548161ffff021916908361ffff1602179055506110638683600101546040518060400160405280600681526020017f7a6f6d626965000000000000000000000000000000000000000000000000000081525061114b565b611126565b82600201600a81819054906101000a900461ffff168092919061108a9061228c565b91906101000a81548161ffff021916908361ffff16021790555083600201600a6101000a81548161ffff021916908361ffff16021790555081600201600881819054906101000a900461ffff16809291906110e49061228c565b91906101000a81548161ffff021916908361ffff1602179055508260020160086101000a81548161ffff021916908361ffff160217905550611125836116ca565b5b505050505050565b611136610c3a565b61113f57600080fd5b611148816116fd565b50565b826005600082815260200190815260200160002060009054906101000a900473ffffffffffffffffffffffffffffffffffffffff1673ffffffffffffffffffffffffffffffffffffffff163373ffffffffffffffffffffffffffffffffffffffff16146111b757600080fd5b6000600485815481106111f3577f4e487b7100000000000000000000000000000000000000000000000000000000600052603260045260246000fd5b9060005260206000209060030201905061120c816117f4565b61121557600080fd5b60025484611223919061235b565b93506000600285836001015461123991906120f7565b611243919061214d565b905060405160200161125490611e86565b604051602081830303815290604052805190602001208460405160200161127b9190611e6f565b6040516020818303038152906040528051906020012014156112be5760636064826112a6919061235b565b826112b1919061217e565b6112bb91906120f7565b90505b6112fd6040518060400160405280600681526020017f4e6f4e616d65000000000000000000000000000000000000000000000000000081525082611353565b611306826116ca565b505050505050565b600080826040516020016113229190611e6f565b6040516020818303038152906040528051906020012060001c90506002548161134b919061235b565b915050919050565b60046040518060c00160405280848152602001838152602001600163ffffffff1681526020016003544261138791906120f7565b63ffffffff168152602001600061ffff168152602001600061ffff16815250908060018154018082558091505060019003906000526020600020906003020160009091909190915060008201518160000190805190602001906113eb92919061191c565b506020820151816001015560408201518160020160006101000a81548163ffffffff021916908363ffffffff16021790555060608201518160020160046101000a81548163ffffffff021916908363ffffffff16021790555060808201518160020160086101000a81548161ffff021916908361ffff16021790555060a082015181600201600a6101000a81548161ffff021916908361ffff1602179055505050600060016004805490506114a0919061217e565b9050336005600083815260200190815260200160002060006101000a81548173ffffffffffffffffffffffffffffffffffffffff021916908373ffffffffffffffffffffffffffffffffffffffff1602179055506115476001600660003373ffffffffffffffffffffffffffffffffffffffff1673ffffffffffffffffffffffffffffffffffffffff1681526020019081526020016000205461181b90919063ffffffff16565b600660003373ffffffffffffffffffffffffffffffffffffffff1673ffffffffffffffffffffffffffffffffffffffff168152602001908152602001600020819055507f88f026aacbbecc90c18411df4b1185fd8d9be2470f1962f192bf84a27d0704b78184846040516115bd93929190611ff8565b60405180910390a1505050565b6116648383836040516024016115e293929190611f30565b6040516020818303038152906040527ff362ca59000000000000000000000000000000000000000000000000000000007bffffffffffffffffffffffffffffffffffffffffffffffffffffffff19166020820180517bffffffffffffffffffffffffffffffffffffffffffffffffffffffff838183161783525050505061186d565b505050565b60006009600081548092919061167e906122b7565b919050556009819055508142336009546040516020016116a093929190611e9b565b6040516020818303038152906040528051906020012060001c6116c3919061235b565b9050919050565b600354426116d891906120f7565b8160020160046101000a81548163ffffffff021916908363ffffffff16021790555050565b600073ffffffffffffffffffffffffffffffffffffffff168173ffffffffffffffffffffffffffffffffffffffff16141561173757600080fd5b8073ffffffffffffffffffffffffffffffffffffffff1660008054906101000a900473ffffffffffffffffffffffffffffffffffffffff1673ffffffffffffffffffffffffffffffffffffffff167f8be0079c531659141344cd1fd0a4f28419497f9722a3daafe3b4186f6b6457e060405160405180910390a3806000806101000a81548173ffffffffffffffffffffffffffffffffffffffff021916908373ffffffffffffffffffffffffffffffffffffffff16021790555050565b6000428260020160049054906101000a900463ffffffff1663ffffffff1611159050919050565b600080828461182a91906120f7565b905083811015611863577f4e487b7100000000000000000000000000000000000000000000000000000000600052600160045260246000fd5b8091505092915050565b60008151905060006a636f6e736f6c652e6c6f679050602083016000808483855afa5050505050565b8280546118a29061225a565b90600052602060002090601f0160209004810192826118c4576000855561190b565b82601f106118dd57803560ff191683800117855561190b565b8280016001018555821561190b579182015b8281111561190a5782358255916020019190600101906118ef565b5b50905061191891906119a2565b5090565b8280546119289061225a565b90600052602060002090601f01602090048101928261194a5760008555611991565b82601f1061196357805160ff1916838001178555611991565b82800160010185558215611991579182015b82811115611990578251825591602001919060010190611975565b5b50905061199e91906119a2565b5090565b5b808211156119bb5760008160009055506001016119a3565b5090565b60006119d26119cd84612067565b612036565b9050828152602081018484840111156119ea57600080fd5b6119f5848285612218565b509392505050565b600081359050611a0c81612466565b92915050565b600081519050611a218161247d565b92915050565b60008083601f840112611a3957600080fd5b8235905067ffffffffffffffff811115611a5257600080fd5b602083019150836001820283011115611a6a57600080fd5b9250929050565b600082601f830112611a8257600080fd5b8135611a928482602086016119bf565b91505092915050565b600081359050611aaa81612494565b92915050565b600081519050611abf81612494565b92915050565b600060208284031215611ad757600080fd5b6000611ae5848285016119fd565b91505092915050565b6000806000806000806000806000806101408b8d031215611b0e57600080fd5b6000611b1c8d828e01611a12565b9a50506020611b2d8d828e01611a12565b9950506040611b3e8d828e01611ab0565b9850506060611b4f8d828e01611ab0565b9750506080611b608d828e01611ab0565b96505060a0611b718d828e01611ab0565b95505060c0611b828d828e01611ab0565b94505060e0611b938d828e01611ab0565b935050610100611ba58d828e01611ab0565b925050610120611bb78d828e01611ab0565b9150509295989b9194979a5092959850565b600060208284031215611bdb57600080fd5b600082013567ffffffffffffffff811115611bf557600080fd5b611c0184828501611a71565b91505092915050565b600060208284031215611c1c57600080fd5b6000611c2a84828501611a9b565b91505092915050565b600080600060408486031215611c4857600080fd5b6000611c5686828701611a9b565b935050602084013567ffffffffffffffff811115611c7357600080fd5b611c7f86828701611a27565b92509250509250925092565b60008060408385031215611c9e57600080fd5b6000611cac85828601611a9b565b9250506020611cbd85828601611a9b565b9150509250929050565b6000611cd38383611e2b565b60208301905092915050565b611ce8816121b2565b82525050565b611cff611cfa826121b2565b61232d565b82525050565b6000611d10826120a7565b611d1a81856120ca565b9350611d2583612097565b8060005b83811015611d56578151611d3d8882611cc7565b9750611d48836120bd565b925050600181019050611d29565b5085935050505092915050565b611d6c816121c4565b82525050565b6000611d7d826120b2565b611d8781856120db565b9350611d97818560208601612227565b611da081612448565b840191505092915050565b6000611db6826120b2565b611dc081856120ec565b9350611dd0818560208601612227565b80840191505092915050565b6000611de96005836120ec565b91507f6b697474790000000000000000000000000000000000000000000000000000006000830152600582019050919050565b611e25816121d0565b82525050565b611e34816121fe565b82525050565b611e43816121fe565b82525050565b611e5a611e55826121fe565b612351565b82525050565b611e6981612208565b82525050565b6000611e7b8284611dab565b915081905092915050565b6000611e9182611ddc565b9150819050919050565b6000611ea78286611e49565b602082019150611eb78285611cee565b601482019150611ec78284611e49565b602082019150819050949350505050565b6000602082019050611eed6000830184611cdf565b92915050565b60006020820190508181036000830152611f0d8184611d05565b905092915050565b6000602082019050611f2a6000830184611d63565b92915050565b60006060820190508181036000830152611f4a8186611d72565b90508181036020830152611f5e8185611d72565b9050611f6d6040830184611e3a565b949350505050565b600060c0820190508181036000830152611f8f8189611d72565b9050611f9e6020830188611e3a565b611fab6040830187611e60565b611fb86060830186611e60565b611fc56080830185611e1c565b611fd260a0830184611e1c565b979650505050505050565b6000602082019050611ff26000830184611e3a565b92915050565b600060608201905061200d6000830186611e3a565b818103602083015261201f8185611d72565b905061202e6040830184611e3a565b949350505050565b6000604051905081810181811067ffffffffffffffff8211171561205d5761205c612419565b5b8060405250919050565b600067ffffffffffffffff82111561208257612081612419565b5b601f19601f8301169050602081019050919050565b6000819050602082019050919050565b600081519050919050565b600081519050919050565b6000602082019050919050565b600082825260208201905092915050565b600082825260208201905092915050565b600081905092915050565b6000612102826121fe565b915061210d836121fe565b9250827fffffffffffffffffffffffffffffffffffffffffffffffffffffffffffffffff038211156121425761214161238c565b5b828201905092915050565b6000612158826121fe565b9150612163836121fe565b925082612173576121726123bb565b5b828204905092915050565b6000612189826121fe565b9150612194836121fe565b9250828210156121a7576121a661238c565b5b828203905092915050565b60006121bd826121de565b9050919050565b60008115159050919050565b600061ffff82169050919050565b600073ffffffffffffffffffffffffffffffffffffffff82169050919050565b6000819050919050565b600063ffffffff82169050919050565b82818337600083830152505050565b60005b8381101561224557808201518184015260208101905061222a565b83811115612254576000848401525b50505050565b6000600282049050600182168061227257607f821691505b60208210811415612286576122856123ea565b5b50919050565b6000612297826121d0565b915061ffff8214156122ac576122ab61238c565b5b600182019050919050565b60006122c2826121fe565b91507fffffffffffffffffffffffffffffffffffffffffffffffffffffffffffffffff8214156122f5576122f461238c565b5b600182019050919050565b600061230b82612208565b915063ffffffff8214156123225761232161238c565b5b600182019050919050565b60006123388261233f565b9050919050565b600061234a82612459565b9050919050565b6000819050919050565b6000612366826121fe565b9150612371836121fe565b925082612381576123806123bb565b5b828206905092915050565b7f4e487b7100000000000000000000000000000000000000000000000000000000600052601160045260246000fd5b7f4e487b7100000000000000000000000000000000000000000000000000000000600052601260045260246000fd5b7f4e487b7100000000000000000000000000000000000000000000000000000000600052602260045260246000fd5b7f4e487b7100000000000000000000000000000000000000000000000000000000600052604160045260246000fd5b6000601f19601f8301169050919050565b60008160601b9050919050565b61246f816121b2565b811461247a57600080fd5b50565b612486816121c4565b811461249157600080fd5b50565b61249d816121fe565b81146124a857600080fd5b5056fe66756e6374696f6e20747269676772656420616e64206e616d652069732073657420746f20257320616e642069747320446e61206973202573a264697066735822122046ed69970f8cf696a64f5ff4d301dad0d0519c4bd231af764658620c5945cfd464736f6c63430008000033",
  "linkReferences": {},
  "deployedLinkReferences": {}
}