{
    "contractName": "ZombieFactory",
    "abi": [
        {
            "anonymous": false,
            "inputs": [
                {
                    "indexed": false,
                    "internalType": "uint256",
                    "name": "zombieId",
                    "type": "uint256"
                },
                {
                    "indexed": false,
                    "internalType": "string",
                    "name": "name",
                    "type": "string"
                },
                {
                    "indexed": false,
                    "internalType": "uint256",
                    "name": "dna",
                    "type": "uint256"
                }
            ],
            "name": "NewZombie",
            "type": "event"
        },
        {
            "anonymous": false,
            "inputs": [
                {
                    "indexed": true,
                    "internalType": "address",
                    "name": "previousOwner",
                    "type": "address"
                },
                {
                    "indexed": true,
                    "internalType": "address",
                    "name": "newOwner",
                    "type": "address"
                }
            ],
            "name": "OwnershipTransferred",
            "type": "event"
        },
        {
            "inputs": [
                {
                    "internalType": "string",
                    "name": "_name",
                    "type": "string"
                }
            ],
            "name": "createRandomZombie",
            "outputs": [],
            "stateMutability": "nonpayable",
            "type": "function"
        },
        {
            "inputs": [],
            "name": "isOwner",
            "outputs": [
                {
                    "internalType": "bool",
                    "name": "",
                    "type": "bool"
                }
            ],
            "stateMutability": "view",
            "type": "function"
        },
        {
            "inputs": [],
            "name": "owner",
            "outputs": [
                {
                    "internalType": "address",
                    "name": "",
                    "type": "address"
                }
            ],
            "stateMutability": "view",
            "type": "function"
        },
        {
            "inputs": [],
            "name": "renounceOwnership",
            "outputs": [],
            "stateMutability": "nonpayable",
            "type": "function"
        },
        {
            "inputs": [
                {
                    "internalType": "address",
                    "name": "newOwner",
                    "type": "address"
                }
            ],
            "name": "transferOwnership",
            "outputs": [],
            "stateMutability": "nonpayable",
            "type": "function"
        },
        {
            "inputs": [
                {
                    "internalType": "uint256",
                    "name": "",
                    "type": "uint256"
                }
            ],
            "name": "zombieToOwner",
            "outputs": [
                {
                    "internalType": "address",
                    "name": "",
                    "type": "address"
                }
            ],
            "stateMutability": "view",
            "type": "function"
        },
        {
            "inputs": [
                {
                    "internalType": "uint256",
                    "name": "",
                    "type": "uint256"
                }
            ],
            "name": "zombies",
            "outputs": [
                {
                    "internalType": "string",
                    "name": "name",
                    "type": "string"
                },
                {
                    "internalType": "uint256",
                    "name": "dna",
                    "type": "uint256"
                },
                {
                    "internalType": "uint32",
                    "name": "level",
                    "type": "uint32"
                },
                {
                    "internalType": "uint32",
                    "name": "readyTime",
                    "type": "uint32"
                },
                {
                    "internalType": "uint16",
                    "name": "winCount",
                    "type": "uint16"
                },
                {
                    "internalType": "uint16",
                    "name": "lossCount",
                    "type": "uint16"
                }
            ],
            "stateMutability": "view",
            "type": "function"
        }
    ],
    "bytecode": "6080604052601060018190556200001890600a620000be565b600255620151806003553480156200002f57600080fd5b50600080546001600160a01b0319163390811782556040519091907f8be0079c531659141344cd1fd0a4f28419497f9722a3daafe3b4186f6b6457e0908290a36200019f565b600181815b80851115620000b65781600019048211156200009a576200009a62000189565b80851615620000a857918102915b93841c93908002906200007a565b509250929050565b6000620000cc8383620000d3565b9392505050565b600082620000e45750600162000183565b81620000f35750600062000183565b81600181146200010c5760028114620001175762000137565b600191505062000183565b60ff8411156200012b576200012b62000189565b50506001821b62000183565b5060208310610133831016604e8410600b84101617156200015c575081810a62000183565b62000168838362000075565b80600019048211156200017f576200017f62000189565b0290505b92915050565b634e487b7160e01b600052601160045260246000fd5b6108f980620001af6000396000f3fe608060405234801561001057600080fd5b506004361061007d5760003560e01c80637bff0a011161005b5780637bff0a01146100fb5780638da5cb5b1461010e5780638f32d59b1461011f578063f2fde38b1461013d57600080fd5b80632052465e14610082578063528b7b8f146100b0578063715018a6146100f1575b600080fd5b6100956100903660046106f0565b610150565b6040516100a796959493929190610751565b60405180910390f35b6100d96100be3660046106f0565b6005602052600090815260409020546001600160a01b031681565b6040516001600160a01b0390911681526020016100a7565b6100f961023a565b005b6100f961010936600461063f565b61029b565b6000546001600160a01b03166100d9565b6000546001600160a01b0316331460405190151581526020016100a7565b6100f961014b366004610616565b6102e7565b6004818154811061016057600080fd5b906000526020600020906003020160009150905080600001805461018390610824565b80601f01602080910402602001604051908101604052809291908181526020018280546101af90610824565b80156101fc5780601f106101d1576101008083540402835291602001916101fc565b820191906000526020600020905b8154815290600101906020018083116101df57829003601f168201915b505050600184015460029094015492939263ffffffff8082169350640100000000820416915061ffff600160401b8204811691600160501b90041686565b6000546001600160a01b0316331461025157600080fd5b600080546040516001600160a01b03909116907f8be0079c531659141344cd1fd0a4f28419497f9722a3daafe3b4186f6b6457e0908390a3600080546001600160a01b0319169055565b33600090815260066020526040902054156102b557600080fd5b60006102c08261030a565b90506102cd60648261085f565b6102d790826107dd565b90506102e3828261034e565b5050565b6000546001600160a01b031633146102fe57600080fd5b610307816104f0565b50565b6000808260405160200161031e9190610735565b6040516020818303038152906040528051906020012060001c905060025481610347919061085f565b9392505050565b60046040518060c00160405280848152602001838152602001600163ffffffff1681526020016003544261038291906107c5565b63ffffffff1681526000602080830182905260409092018190528354600181018555938152819020825180519394600302909101926103c4928492019061057d565b5060208201516001808301919091556040830151600290920180546060850151608086015160a09096015161ffff908116600160501b0261ffff60501b1991909716600160401b02166bffffffff00000000000000001963ffffffff9283166401000000000267ffffffffffffffff199094169290961691909117919091179390931692909217929092179055600454600091610460916107dd565b600081815260056020908152604080832080546001600160a01b031916339081179091558352600690915290205490915061049c90600161055e565b336000908152600660205260409081902091909155517f88f026aacbbecc90c18411df4b1185fd8d9be2470f1962f192bf84a27d0704b7906104e39083908690869061079c565b60405180910390a1505050565b6001600160a01b03811661050357600080fd5b600080546040516001600160a01b03808516939216917f8be0079c531659141344cd1fd0a4f28419497f9722a3daafe3b4186f6b6457e091a3600080546001600160a01b0319166001600160a01b0392909216919091179055565b60008061056b83856107c5565b90508381101561034757610347610881565b82805461058990610824565b90600052602060002090601f0160209004810192826105ab57600085556105f1565b82601f106105c457805160ff19168380011785556105f1565b828001600101855582156105f1579182015b828111156105f15782518255916020019190600101906105d6565b506105fd929150610601565b5090565b5b808211156105fd5760008155600101610602565b60006020828403121561062857600080fd5b81356001600160a01b038116811461034757600080fd5b60006020828403121561065157600080fd5b813567ffffffffffffffff8082111561066957600080fd5b818401915084601f83011261067d57600080fd5b81358181111561068f5761068f6108ad565b604051601f8201601f19908116603f011681019083821181831017156106b7576106b76108ad565b816040528281528760208487010111156106d057600080fd5b826020860160208301376000928101602001929092525095945050505050565b60006020828403121561070257600080fd5b5035919050565b600081518084526107218160208601602086016107f4565b601f01601f19169290920160200192915050565b600082516107478184602087016107f4565b9190910192915050565b60c08152600061076460c0830189610709565b60208301979097525063ffffffff948516604082015292909316606083015261ffff908116608083015290911660a090910152919050565b8381526060602082015260006107b56060830185610709565b9050826040830152949350505050565b600082198211156107d8576107d8610897565b500190565b6000828210156107ef576107ef610897565b500390565b60005b8381101561080f5781810151838201526020016107f7565b8381111561081e576000848401525b50505050565b600181811c9082168061083857607f821691505b6020821081141561085957634e487b7160e01b600052602260045260246000fd5b50919050565b60008261087c57634e487b7160e01b600052601260045260246000fd5b500690565b634e487b7160e01b600052600160045260246000fd5b634e487b7160e01b600052601160045260246000fd5b634e487b7160e01b600052604160045260246000fdfea2646970667358221220fefb14c5c80ecaf2a3b7bd16c8efb1a2511b5adba97f3131cf413bd56d041ecd64736f6c63430008070033",
    "sourcePath": "d:/Capricon2101/BlockChain/Dapp's/2/contracts/zombiefactory.sol",
    "compiler": {
        "name": "solc",
        "version": "0.8.7+commit.e28d00a7"
    },
    "functionHashes": {
        "createRandomZombie(string)": "7bff0a01",
        "isOwner()": "8f32d59b",
        "owner()": "8da5cb5b",
        "renounceOwnership()": "715018a6",
        "transferOwnership(address)": "f2fde38b",
        "zombieToOwner(uint256)": "528b7b8f",
        "zombies(uint256)": "2052465e"
    },
    "gasEstimates": {
        "creation": {
            "codeDepositCost": "459400",
            "executionCost": "92918",
            "totalCost": "552318"
        },
        "external": {
            "createRandomZombie(string)": "infinite",
            "isOwner()": "2353",
            "owner()": "2353",
            "renounceOwnership()": "30210",
            "transferOwnership(address)": "30460",
            "zombieToOwner(uint256)": "2500",
            "zombies(uint256)": "infinite"
        },
        "internal": {
            "_createZombie(string memory,uint256)": "infinite",
            "_generateRandomDna(string memory)": "infinite"
        }
    }
}